S01200005354415449435F4341522E7372656315
S11300000C942A000C943C000C943C000C94660163
S11300100C943C000C943C000C943C000C943C006C
S11300200C943C000C943C000C943C000C943C005C
S11300300C943C000C943C000C943C000C943C004C
S11300400C943C000C943C000C943C000C943C003C
S11300500C943C0011241FBECFE5D8E0DEBFCDBF19
S113006020E0A0E6B0E001C01D92AA36B207E1F795
S11300700E94F5030C9446060C9400000E948C0523
S11300800E94FA036EE181E00E9401040895CF9377
S1130090DF9300D0CDB7DEB71A8219820E94AB0578
S11300A0CE0101960E94BF0549814295407F60EFD1
S11300B081E00E94D5002FE738E381E021503040F1
S11300C08040E1F700C0000089819A819C01295198
S11300D031092630310538F08F31910590F4499774
S11300E0A8F080E017C062E383E00E9401049FEF60
S11300F025EA3EE0915020403040E1F700C0000086
S113010009C06EE181E00E94010404C06EE182E056
S11301100E9401040F900F90DF91CF910895FC018C
S11301208281882319F08F3FF1F521C080818130CD
S113013061F028F0823079F08330A9F512C09AB3C7
S11301408181809589238ABB2EC097B38181809554
S1130150892387BB28C094B381818095892384BB7C
S113016022C091B381818095892381BB1CC0808189
S1130170813059F028F0823069F08330A1F40FC047
S11301809AB38181892B8ABB0EC097B38181892B55
S113019087BB09C094B38181892B84BB04C091B30C
S11301A08181892B81BB81E0089541111DC081307B
S11301B061F030F0823071F0833009F044C00FC038
S11301C08BB3609568236BBB3EC088B3609568238E
S11301D068BB39C085B36095682365BB34C082B3FE
S11301E06095682362BB2FC0813081F028F0823093
S11301F0B9F0833041F51EC08BB3962F90958923B7
S11302008BBB8BB34623482B4BBB1DC088B3962FA7
S11302109095892388BB88B34623482B48BB13C0D9
S113022085B3962F9095892385BB85B34623482BA8
S113023045BB09C082B3962F9095892382BB82B3B4
S11302404623482B42BB81E008951F93CF93DF934D
S113025000D01F92CDB7DEB7162F9FB790689FBF0F
S11302608230C9F481E0898384E08A831B82CE01D1
S113027001960E948F004FEF64E081E00E94D50058
S1130280123031F0133039F484B7806484BF03C072
S113029084B78F7B84BF0F900F900F90DF91CF9125
S11302A01F910895823089F4623049F0633069F413
S11302B08BB780628BBF84B7806484BF08958BB78B
S11302C080628BBF84B78F7B84BF08951F920F9287
S11302D00FB60F9211242F933F934F935F936F9315
S11302E07F938F939F93AF93BF93EF93FF938091EB
S11302F06300833079F460E071E080E00E940C05D3
S11303008093620082E080936300609163000E94A6
S1130310520108C080E00E945A058093620081E087
S113032080936100FF91EF91BF91AF919F918F9165
S11303307F916F915F914F913F912F910F900FBEDD
S11303400F901F9018950F931F93CF93DF93CDB702
S1130350DEB72A970FB6F894DEBF0FBECDBF8C016F
S113036081E0898394E09A831B8293E090936300F5
S11303708C8380EF8D838FEF8E83CE0104960E9451
S11303808F001F82188686E089871A868FB7806857
S11303908FBF63E082E00E942501F80180818230F2
S11303A021F4CE0101960E948F00F8018181811110
S11303B005C0CE0107960E94600401C080E02A9621
S11303C00FB6F894DEBF0FBECDBFDF91CF911F9162
S11303D00F910895EF92FF920F931F93CF93DF93A2
S11303E000D0CDB7DEB77A011A82198293E09093D8
S11303F06300882319F0823019F502C081E023C01C
S1130400613001F56091630082E00E9452010BC0EB
S113041008B600FE08C0809160008F5F8093600082
S113042088B7816088BF80916100882389F3BE0109
S11304306F5F7F4F80E00E9471051092610003C0DE
S113044080E001C080E090916000392F20E00981B4
S11304501A81020F131F20E030E0F701008311839B
S113046022833383109260000F900F90DF91CF911D
S11304701F910F91FF90EF900895FF920F931F9398
S1130480CF93DF93CDB7DEB72C970FB6F894DEBFCA
S11304900FBECDBFF82E03E0098384E08A831FEFEB
S11304A01B83CE0101960E948F000C8388E08D830C
S11304B01E83CE0104960E948F000F8380E48887F8
S11304C01987CE0107960E948F000A8780E88B87E0
S11304D01C87CE010A960E948F0081E0F81621F055
S11304E082E0F81209C004C081E08093640005C072
S11304F081E08093650001C080E02C960FB6F894EB
S1130500DEBF0FBECDBFDF91CF911F910F91FF9042
S11305100895813021F0823009F060C030C061302C
S113052061F020F0623009F05BC018C040E060E187
S113053083E00E94D50081E008954FEF60E183E0FD
S11305400E94D5004FEF64E083E00E94D50040E0B4
S113055068E083E00E94D50081E008954FEF60E1F8
S113056083E00E94D50040E064E083E00E94D5006F
S11305704FEF68E083E00E94D50081E00895613088
S113058059F018F0623071F518C040E060E283E081
S11305900E94D50081E008954FEF60E283E00E945D
S11305A0D5004FEF60E483E00E94D50040E060E8AE
S11305B083E00E94D50081E008954FEF60E283E07C
S11305C00E94D50040E060E483E00E94D5004FEF34
S11305D060E883E00E94D50081E0089580E00895FA
S11305E080E0089580E008951F93CF93DF9300D0B7
S11305F000D0CDB7DEB7162F91E0909366009983B3
S113060093E09A8322E02B839C83813019F082301B
S1130610D9F40DC0CE0101960E94400328EC30E0CD
S113062040E050E0612F81E00E94AB030EC0CE0198
S113063003960E94400328EC30E040E050E0612F34
S113064082E00E94AB0301C080E00F900F900F90F6
S11306500F90DF91CF911F91089510926600813021
S113066019F0823059F405C081E00E94DA0381E078
S1130670089582E00E94DA0381E0089580E00895FD
S1130680CF93DF9300D01F92CDB7DEB7FC018081FA
S1130690813021F0823009F057C02DC083E0898376
S11306A080E18A838FEF8B838CB59DB51DBC1CBC08
S11306B086B597B517BC16BC8AB59BB588279BBD74
S11306C08ABD8CB59DB59DBD8CBD8EB59FB5886129
S11306D092689FBD8EBD8AB59BB59BBD8ABD86B50C
S11306E097B58F6F97BD86BD89B789BFCE01019637
S11306F00E948F002AC083E0898380E28A838FEF7F
S11307008B838CB59DB51DBC1CBC88B599B5882759
S113071099BD88BD8CB59DB59DBD8CBD8EB59FB56D
S1130720886192629FBD8EBD88B599B599BD88BD1B
S113073086B597B58F6F97BD86BD89B789BFCE0142
S113074001960E948F0001C080E00F900F900F90DF
S1130750DF91CF910895282F81E0809369003FEFC6
S1130760639FC001112464E670E00E94FC052130FF
S113077039F0F0F0223081F02330D1F081E0089597
S11307808AB59BB5862B9BBD8ABD8EB59FB583600C
S11307909FBD8EBD81E0089588B599B5862B99BD1E
S11307A088BD8EB59FB583609FBD8EBD81E00895E1
S11307B080E00895823059F0833081F0813099F4DB
S11307C08EB5887F8EBD1092690081E008958EB544
S11307D0887F8EBD1092690081E0089582E00E94B6
S11307E05A0581E0089580E008950E943E000E9429
S11307F04700FDCF81E00E943D0282E00E943D025D
S11308000895CF93C62F823029F130F4882351F014
S1130810813009F052C00DC0833069F1843009F091
S11308204CC03AC081E00E942D0382E00E942D0357
S113083045C061E081E00E94890261E082E00E949B
S113084089026C2F81E00E94F4026C2F82E00E94E6
S1130850F40234C062E081E00E94890262E082E036
S11308600E9489026C2F81E00E94F4026C2F82E0C6
S11308700E94F40223C061E081E00E94890262E0E8
S113088082E00E9489026C2F81E00E94F4026C2FA6
S113089082E00E94F40212C062E081E00E948902B8
S11308A061E082E00E9489026C2F81E00E94F402E0
S11308B06C2F82E00E94F40201C080E0CF91089581
S11308C0FC0191819093680080818130B9F120F01E
S11308D0823009F09FC063C082818430A1F028F483
S11308E0813041F08230F1F409C0863089F08730DC
S11308F0C9F413C081E08093670015C082E080933F
S1130900670081E010C083E08093670081E00BC042
S113091084E08093670081E006C085E080936700EF
S113092081E001C080E092B712BE23B79181922B7F
S113093093BF29B79381922B99BF08958281843004
S1130940A1F028F4813041F08230F1F409C08630FE
S113095089F08730C9F413C081E08093670015C023
S113096082E08093670081E010C083E08093670099
S113097081E00BC084E08093670081E006C085E0DD
S11309808093670081E001C080E02EB53FB5292B3C
S11309903FBD2EBD29B79381922B99BF08958281C3
S11309A08430D9F030F4823071F090F4813049F51C
S11309B006C08630E1F0B0F0873019F51DC081E043
S11309C0809367001FC082E08093670081E01AC0B3
S11309D083E08093670081E015C084E08093670022
S11309E081E010C085E08093670081E00BC086E061
S11309F08093670081E006C087E08093670081E010
S1130A0001C080E025B5922B95BD29B79381922B27
S1130A1099BF089580E008958130D1F020F08230AC
S1130A2009F046C030C080916800882319F08830EE
S1130A3041F404C0619562BF81E004C06CBF81E0F1
S1130A4001C080E093B720916700922B93BF089573
S1130A5080916800882319F0883061F407C071958B
S1130A60619571097DBD6CBD81E005C07BBD6ABD2A
S1130A7081E001C080E02EB53FB590916700292B3D
S1130A803FBD2EBD089580916800882319F08830F9
S1130A9041F404C0619564BD81E004C063BD81E09C
S1130AA001C080E095B520916700922B95BD089513
S1130AB080E00895813049F018F0823081F40AC052
S1130AC083B7887F83BF81E008958EB5887F8EBD0C
S1130AD081E0089585B5887F85BD81E0089580E033
S1130AE00895813051F018F08230A1F40DC082B71E
S1130AF0FB018083118281E008958CB59DB5FB01D3
S1130B009183808381E0089584B5FB018083118201
S1130B1081E0089580E00895CF93DF9300D000D062
S1130B201F92CDB7DEB781E0898382E08A839FEF8D
S1130B309B838C831D82CE0104960E94A301CE0167
S1130B4001960E948F000F900F900F900F900F90BE
S1130B50DF91CF9108954FEF62E081E00E94D500CC
S1130B608AE18A95F1F700C040E062E081E00E94EA
S1130B70D5008AE18A95F1F700C081E008950F93CA
S1130B801F93CF93DF9300D000D0CDB7DEB78C0195
S1130B9019821A821B821C82AE014F5F5F4F61E093
S1130BA082E00E94EA0189819A81AB81BC81880F2D
S1130BB0991FAA1FBB1F880F991FAA1FBB1FBC0127
S1130BC0CD01660F771F881F991F660F771F881F37
S1130BD0991F2AE330E040E050E00E941006F8013B
S1130BE03183208381E00F900F900F900F90DF915D
S1130BF0CF911F910F91089597FB072E16F400943F
S1130C0007D077FD09D00E94320607FC05D03EF4D8
S1130C10909581959F4F0895709561957F4F0895A4
S1130C20A1E21A2EAA1BBB1BFD010DC0AA1FBB1FEC
S1130C30EE1FFF1FA217B307E407F50720F0A21B5E
S1130C40B30BE40BF50B661F771F881F991F1A94CB
S1130C5069F760957095809590959B01AC01BD01F5
S1130C60CF010895AA1BBB1B51E107C0AA1FBB1FDC
S1130C70A617B70710F0A61BB70B881F991F5A9524
S1130C80A9F780959095BC01CD010895F894FFCF04
S9030000FC
