S00B0000544D552E7372656323
S11300000C942A000C9447000C9447000C9447006D
S11300100C94CF020C9447000C9447000C94A80253
S11300200C9447000C9447000C9481020C944700F4
S11300300C9447000C9447000C9447000C94470020
S11300400C9447000C9447000C9447000C94470010
S11300500C94470011241FBECFE5D8E0DEBFCDBF0E
S113006010E0A0E6B0E0E4E9F9E002C005900D92EA
S1130070A23CB107D9F721E0A2ECB0E001C01D9287
S1130080AB31B207E1F70E94A8000C94C8040C94A9
S11300900000FC018281882319F08F3FF1F521C013
S11300A08081813061F028F0823079F08330A9F5C5
S11300B012C09AB38181809589238ABB2EC097B3DD
S11300C081818095892387BB28C094B381818095E1
S11300D0892384BB22C091B381818095892381BB0C
S11300E01CC08081813059F028F0823069F083305F
S11300F0A1F40FC09AB38181892B8ABB0EC097B338
S11301008181892B87BB09C094B38181892B84BBEE
S113011004C091B38181892B81BB81E00895813032
S113012051F028F0823059F0833081F40CC08BB345
S113013068276BBB0BC088B3682768BB07C085B34F
S1130140682765BB03C082B3682762BB81E008955A
S11301500E94B7000E941F04FDCF64E081E00E946A
S11301608F00089562E081E00E948F000895CF938C
S1130170DF93CDB7DEB7CA54D1090FB6F894DEBF0A
S11301800FBECDBF80E690E00E94490083E690E078
S11301900E944900198281E08A8386E0E7E6F0E064
S11301A0DE01139601900D928A95E1F786E0EDE663
S11301B0F0E0DE01199601900D928A95E1F786E050
S11301C0E3E7F0E0DE011F9601900D928A95E1F7D6
S11301D086E0E9E7F0E0DE01559601900D928A95FC
S11301E0E1F786E0EFE7F0E0DE015B9601900D9227
S11301F08A95E1F786E0E5E8F0E0DE01919601906A
S11302000D928A95E1F786E0EBE8F0E0DE0197963F
S113021001900D928A95E1F786E0E1E9F0E0DE01D4
S11302209D9601900D928A95E1F786E0E7E9F0E06A
S1130230DE01D39601900D928A95E1F786E0EDE90F
S1130240F0E0DE01D99601900D928A95E1F786E0FF
S1130250E3EAF0E0DE01DF9601900D928A95E1F782
S113026086E0E9EAF0E0DE01AB5BBF4F01900D925E
S11302708A95E1F7CE0101960E94FA02CE01039617
S11302800E946003CE0109960E946003CE010F967E
S11302900E946003CE0145960E946003CE014B96F6
S11302A00E946003CE0181960E946003CE0187966E
S11302B00E946003CE018D960E946003CE01C39616
S11302C00E946003CE01C9960E946003CE01CF96BE
S11302D00E946003CE018B5B9F4F0E94B503CE0149
S11302E081960E94B503CE01CF960E946003C65B3F
S11302F0DF4F0FB6F894DEBF0FBECDBFDF91CF91B5
S11303000895FC0141814093C300848195819093B9
S1130310C5008093C40080818130B9F120F082301F
S113032009F09FC063C082818430A1F028F4813039
S113033041F08230F1F409C0863089F08730C9F485
S113034013C081E08093C20015C082E08093C20094
S113035081E010C083E08093C20081E00BC084E0A0
S11303608093C20081E006C085E08093C20081E0F2
S113037001C080E092B712BE23B79181922B93BF44
S113038029B79381922B99BF089582818430A1F07B
S113039028F4813041F08230F1F409C0863089F0CC
S11303A08730C9F413C081E08093C20015C082E095
S11303B08093C20081E010C083E08093C20081E09A
S11303C00BC084E08093C20081E006C085E0809386
S11303D0C20081E001C080E02EB53FB5242B3FBDB3
S11303E02EBD29B79381922B99BF089582818430C1
S11303F0D9F030F4823071F090F4813049F506C0C0
S11304008630E1F0B0F0873019F51DC081E08093AB
S1130410C2001FC082E08093C20081E01AC083E062
S11304208093C20081E015C084E08093C20081E023
S113043010C085E08093C20081E00BC086E0809309
S1130440C20081E006C087E08093C20081E001C061
S113045080E095B5492B45BD29B79381922B99BF6F
S1130460089580E008958130D1F020F0823009F0C1
S113047046C030C08091C300882319F0883041F40D
S113048004C0619562BF81E004C06CBF81E001C01B
S113049080E093B72091C200922B93BF089580917E
S11304A0C300882319F0883061F407C07195619501
S11304B071097DBD6CBD81E005C07BBD6ABD81E075
S11304C001C080E02EB53FB59091C200292B3FBDFD
S11304D02EBD08958091C300882319F0883041F41B
S11304E004C0619564BD81E004C063BD81E001C0C6
S11304F080E095B52091C200922B95BD089580E0CF
S113050008951F920F920FB60F9211242F933F93C9
S11305104F935F936F937F938F939F93AF93BF9307
S1130520EF93FF93E091C400F091C5000995FF910A
S1130530EF91BF91AF919F918F917F916F915F9157
S11305404F913F912F910F900FBE0F901F901895D0
S11305501F920F920FB60F9211242F933F934F9334
S11305605F936F937F938F939F93AF93BF93EF9317
S1130570FF93E091C400F091C5000995FF91EF91BC
S1130580BF91AF919F918F917F916F915F914F91A7
S11305903F912F910F900FBE0F901F9018951F92AF
S11305A00F920FB60F9211242F933F934F935F93A3
S11305B06F937F938F939F93AF93BF93EF93FF9327
S11305C0E091C400F091C5000995FF91EF91BF91AE
S11305D0AF919F918F917F916F915F914F913F91D7
S11305E02F910F900FBE0F901F90189581E080936C
S11305F0C80008950F931F93CF93DF9300D000D0CA
S113060000D0CDB7DEB78C01009709F44BC0F89445
S1130610FC018081809366008130D1F020F082302B
S113062009F042C02AC086E0EFEAF0E0DE0111964C
S113063001900D928A95E1F7CE0101960E94810105
S11306406AEF70E0F80180810E94330281E02DC0DE
S113065086E0E5EBF0E0DE01119601900D928A95BB
S1130660E1F7CE0101960E9481016AEF70E0F80182
S113067080810E94330281E018C086E0EBEBF0E059
S1130680DE01119601900D928A95E1F7CE01019653
S11306900E9481016AEF70E0F80180810E943302B8
S11306A081E003C08FEF01C080E026960FB6F89476
S11306B0DEBF0FBECDBFDF91CF911F910F91089583
S11306C0FC01009759F1818192811816190644F5AD
S11306D02381222319F0213029F510C03091C9005B
S11306E03A3010F5A081B0E0AA0FBB1FA653BF4F4C
S11306F08D939C933F5F3093C9001AC03091F200F0
S11307003A30A0F4A081B0E0AA0FBB1FA252BF4FA1
S11307108D939C933F5F3093F2000AC08FEF08954E
S11307208BEF08958BEF089588EF089588EF08956F
S1130730822F992787FD90952081DC01AA0FBB1F8A
S1130740880F991F880F991F880F991FA80FB91F29
S1130750A20FB11DAA0FBB1FAD50BF4F848195815D
S11307608D939C93789481E00895009709F441C097
S1130770FC012381222319F02130E9F51DC03091B9
S1130780C9003323D1F1FC01408150E0FA01EE0F9E
S1130790FF1FE653FF4F60817181672B81F1315058
S11307A03093C900FA01EE0FFF1FE653FF4F4FEFDE
S11307B05FEF5183408329C03091F200332309F164
S11307C0FC01408150E0FA01EE0FFF1FE252FF4F9F
S11307D060817181672BB9F031503093F200FA01D6
S11307E0EE0FFF1FE252FF4F4FEF5FEF5183408345
S11307F00CC08FEF08958BEF08958CEF08958CEF64
S113080008958CEF08958CEF0895332727FD3095D4
S1130810FC018081F901EE0FFF1F220F331F220F0D
S1130820331F220F331FE20FF31FE80FF11DEE0FEA
S1130830FF1FED50FF4F1182108281E00895CF9287
S1130840DF92EF92FF920F931F93CF93DF938091E8
S1130850C800882309F47EC01092C8008091C600A5
S11308609091C70001969093C7008093C600209191
S1130870CA003091CB002115310509F45DC0E0E0D8
S1130880F0E010E0CFEFDFEF8091C6009091C70059
S1130890422F642F732F0E94B404892B09F5809191
S11308A0C6009091C700642F732F0E94B404672B75
S11308B0B9F06F01CC0CDD1C0F2EF3EFEF2EF0E03E
S11308C0FF2EF02DEC0CFD1CD701ED91FC91099548
S11308D0F70111821082F601E653FF4FD183C083E2
S11308E01F5FE12FF0E0DF01AA0FBB1FA653BF4F2C
S11308F02D913C912115310539F61EC08091C60019
S11309009091C7000E94B404892B49F4F901EE0FB9
S1130910FF1FE95FFE4F0190F081E02D09959E01D4
S1130920D8016D917D918D016115710599F0219624
S1130930CB30D10519F70EC06091DE007091DF0055
S11309406115710539F000EE10E0C1E0D0E020E05F
S113095030E0D4CF81E0DF91CF911F910F91FF90D0
S1130960EF90DF90CF900895AA1BBB1B51E107C005
S1130970AA1FBB1FA617B70710F0A61BB70B881F2B
S1130980991F5A95A9F780959095BC01CD010895BA
S1070990F894FFCF05
S11309940102FF0104FFFF00F40101B2000163003E
S11309A401B20002F40101B20003540301B20004D1
S11309B4F40101B20005F40101B200062C0101B2F4
S11309C40007F40101B20008940001B20009F40123
S11309D401B20005F40101AD0000F40100B200000D
S11309E4080402F60201080410F60202080480F660
S10509F40200FB
S9030000FC
